:100000000C9472000C9493000C9493000C94930045
:100010000C9493000C9493000C9493000C94930014
:100020000C9493000C9493000C9493000C94930004
:100030000C9493000C9493000C9493000C949300F4
:100040000C9493000C9493000C9493000C949300E4
:100050000C9493000C9493000C9493000C949300D4
:100060000C9493000C9493000C9493000C949300C4
:100070000C9493000C9493000C9493000C949300B4
:100080000C9493000C9493000C9493000C949300A4
:100090000C9493000C9493000C9493000C94930094
:1000A0000C9493000C9493000C9493000C94930084
:1000B0000C9493000C9493000C9493000C94930074
:1000C0000C9493000C9493000C9493000C94930064
:1000D0000C9493000C9493000C9493000C94930054
:1000E0000C94930011241FBECFEFD1E2DEBFCDBF31
:1000F00000E00CBF12E0A0E0B2E0EEE6F6E000E0C7
:100100000BBF02C007900D92A031B107D9F722E0D2
:10011000A0E1B2E001C01D92AA31B207E1F70E944E
:10012000D4000C9435030C94000092B19F7040E110
:10013000849F90011124922B92B9299A8FE99FE014
:100140000197F1F700C0000029988FE99FE001971F
:10015000F1F700C000000895CF93C82F289A859525
:100160008595859585950E9495008C2F8F700E94AE
:1001700095008FE99FE00197F1F700C00000CF9153
:100180000895CF93C82F289882958F700E9495006C
:100190008C2F8F700E9495008FE39FE10197F1F7FC
:1001A00000C00000CF910895CF93DF93CDB7DEB7A5
:1001B00060970FB6F894DEBF0FBECDBF81B1806FE0
:1001C00081B984B1836084B98FEF80930A01109262
:1001D00007018FE0809308012FEF89EF90E0215015
:1001E00080409040E1F700C0000083E00E9495004D
:1001F000EFE1FEE43197F1F700C0000083E00E94D8
:1002000095008FE99FE00197F1F700C0000083E0BF
:100210000E949500EFE9FFE03197F1F700C0000080
:1002200082E00E94950088E20E94C1008CE00E945A
:10023000C10081E00E94C1008FE39FE10197F1F7C7
:1002400000C0000001E010E0FF24F39480E1E0E052
:10025000F2E0DE01119601900D928A95E1F790E0AF
:1002600080E09801082E01C0220F0A94EAF7209539
:1002700020930B01EFE1FEE43197F1F700C000009D
:10028000209106012F702F3009F46DC030910601C6
:100290003F703F30D9F72E30E1F5880F991F880F56
:1002A000991FE1E0F0E0EC0FFD1FE80FF91F8080DF
:1002B000882061F280ED880D8A3008F073C0882DA7
:1002C0000E94AC00082C000C9908F0E38F1A9108EA
:1002D000092C000CAA08BB0880911902811149C0A1
:1002E0002091150230911602409117025091180288
:1002F000AAE0B0E00E94F902860E971EA81EB91E61
:100300008092150290921602A0921702B0921802E3
:100310009DCF2D3061F4880F991F880F991FE1E060
:10032000F0E0EC0FFD1FE80FF91F8180C1CF2B30EB
:1003300061F4880F991F880F991FE1E0F0E0EC0F3E
:10034000FD1FE80FF91F8280B3CF273061F4880FBB
:10035000991F880F991FE1E0F0E0EC0FFD1FE80FF7
:10036000F91F8380A5CF01968430910509F079CFDC
:100370006DCF2091110230911202409113025091E1
:100380001402AAE0B0E00E94F902860E971EA81E91
:10039000B91E8092110290921202A0921302B092A2
:1003A000140254CF882D8D7F8D3221F086ED880D7B
:1003B000823040F480921002F0921902882D0E943F
:1003C000AC0044CF2DE3821283C0809110028B32A7
:1003D00071F58090150290901602A0901702B090CF
:1003E00018028091110290911202A0911302B09113
:1003F0001402880E991EAA1EBB1E80EC0E94C1002A
:100400008DE30E94AC002AE0AE014F5F5F4FC50153
:10041000B4010E948902CE0101965C01F50181912F
:100420005F01882309F412CF0E94AC00F7CF8D3210
:10043000A9F48090150290901602A0901702B09037
:1004400018028091110290911202A0911302B091B2
:100450001402881A990AAA0ABB0ACFCF8A32A9F4D1
:100460002091150230911602409117025091180206
:100470006091110270911202809113029091140206
:100480000E94CA024B015C01B8CF812C912C54010F
:100490008F3209F0B2CF8090110290901202A0909A
:1004A0001302B090140281149104A104B10409F460
:1004B000A4CF60911502709116028091170290915D
:1004C0001802A50194010E94DA0249015A0195CF50
:1004D000F3E48F12BBCE1092100210921102109210
:1004E000120210921302109214021092150210922E
:1004F000160210921702109218021092190281E04F
:100500000E94C1008FE39FE10197F1F700C0000056
:100510009DCEBB272A3051F4992342F4BDE2909539
:100520008095709561957F4F8F4F9F4F0C949902E6
:10053000BB27FA01A62F6217710581059105330BC0
:1005400030FB66F0AA27660F771F881F991FAA1F26
:10055000A21710F0A21B63953850A9F7A05DAA332B
:1005600008F0A95DA19336F7B111B1931082CA01C9
:100570000C94BA02DC01FC01672F71917723E1F73B
:10058000329704C07C916D9370836291AE17BF0760
:10059000C8F30895DB018F939F930E94F902BF91E6
:1005A000AF91A29F800D911DA39F900DB29F900DC2
:1005B00011240895052E97FB1EF400940E94F10269
:1005C00057FD07D00E94040307FC03D04EF40C949F
:1005D000F10250954095309521953F4F4F4F5F4F19
:1005E000089590958095709561957F4F8F4F9F4F9F
:1005F00008950E942603A59F900DB49F900DA49F7F
:10060000800D911D11240895A1E21A2EAA1BBB1B77
:10061000FD010DC0AA1FBB1FEE1FFF1FA217B307CE
:10062000E407F50720F0A21BB30BE40BF50B661FE4
:10063000771F881F991F1A9469F7609570958095A8
:1006400090959B01AC01BD01CF010895A29FB0011F
:10065000B39FC001A39F700D811D1124911DB29FF6
:0E066000700D811D1124911D0895F894FFCF97
:10066E003132332B3435362D3738392A43303D2F3E
:00000001FF
