:100000000C9472000C948B000C948B000C948B005D
:100010000C948B000C948B000C948B000C948B0034
:100020000C948B000C948B000C948B000C948B0024
:100030000C948B000C948B000C948B000C948B0014
:100040000C948B000C948B000C948B000C948B0004
:100050000C948B000C948B000C948B000C948B00F4
:100060000C948B000C94B1000C948B000C948B00BE
:100070000C948B000C948B000C948B000C948B00D4
:100080000C948B000C948B000C948B000C948B00C4
:100090000C948B000C948B000C948B000C948B00B4
:1000A0000C948B000C948B000C948B000C948B00A4
:1000B0000C948B000C948B000C948B000C948B0094
:1000C0000C948B000C948B000C948B000C948B0084
:1000D0000C948B000C948B000C948B000C948B0074
:1000E0000C948B0011241FBECFEFD1E2DEBFCDBF39
:1000F00000E00CBF12E0A0E0B2E0ECEFF2E000E0C4
:100100000BBF02C007900D92A031B107D9F70E9432
:10011000FC000C947C010C940000419A85E08A95C7
:10012000F1F7000041988FE891E00197F1F700C0E6
:1001300000000895CF93DF93C82F409892B19F702D
:10014000807F982B92B90E948D0082B18F7090E1D0
:10015000C99FE00111248C2B82B9DF91CF910C94BF
:100160008D001F920F920FB60F9211240BB60F92B3
:100170002F933F934F935F936F937F938F939F93AF
:10018000AF93BF93CF93EF93FF93C091C600CD3051
:10019000E9F481E00E949A008FE39FE10197F1F773
:1001A00000C00000FF91EF91CF91BF91AF919F915F
:1001B0008F917F916F915F914F913F912F910F9010
:1001C0000BBE0F900FBE0F901F901895CA3051F3C1
:1001D000409A82B18F709C2F907F892B82B90E94A8
:1001E0008D0022B12F7030E1C39FC0011124822BFA
:1001F00082B90E948D00D6CF1092C50088E6809308
:10020000C40088E98093C10086E08093C20081B178
:10021000806F81B987B1836087B92FEF89EF90E054
:10022000215080409040E1F700C0000082E00E9431
:100230009A0088E20E949A008CE00E949A0081E075
:100240000E949A00EFE3FFE13197F1F700C0000050
:100250008FE0809307018FEF809308017894A0E0EE
:1002600061E070E090E080E09B01082E01C0220F69
:100270000A94EAF7209520930801FAE1FA95F1F73C
:1002800000C04091060150E024E0559547952A951D
:10029000E1F730E020E0FA01022E02C0F595E79583
:1002A0000A94E2F7E0FD14C0FC01EE0FFF1FEE0F11
:1002B000FF1FE050FE4FE20FF31F8081811113C03A
:1002C000EFE3FCE93197F1F700C00000A82FCACF97
:1002D0002F5F3F4F24303105F1F6019684309105B0
:1002E00019F680E0EDCFA111EBCF9091C00095FF02
:0C02F000FCCF8093C600E4CFF894FFCF51
:1002FC003132334134353642373839432A3023448E
:00000001FF
