:100000000C9472000C947E000C947E000C947E0084
:100010000C947E000C947E000C947E000C947E0068
:100020000C947E000C947E000C947E000C947E0058
:100030000C947E000C947E000C947E000C947E0048
:100040000C947E000C947E000C947E000C947E0038
:100050000C947E000C947E000C947E000C947E0028
:100060000C947E000C947E000C947E000C947E0018
:100070000C947E000C947E000C947E000C947E0008
:100080000C947E000C947E000C947E000C947E00F8
:100090000C947E000C947E000C947E000C947E00E8
:1000A0000C947E000C947E000C947E000C947E00D8
:1000B0000C947E000C947E000C947E000C947E00C8
:1000C0000C947E000C947E000C947E000C947E00B8
:1000D0000C947E000C947E000C947E000C947E00A8
:1000E0000C947E0011241FBECFEFD1E2DEBFCDBF46
:1000F00000E00CBF0E9480000C94E8000C9400000B
:1001000080910A01886080930A0182E8809320012F
:100110008DE18093210188E09DE3909327018093F6
:10012000260180E480937C0087E880937A00CC24C9
:10013000CA9483E0D82EE12CF12C80917A0080645F
:1001400080937A0080917A0086FDFCCF2091780020
:1001500030917900A8E0BDE30E94D900A701960183
:100160000E94B7003093290120932801E6CFA1E235
:100170001A2EAA1BBB1BFD010DC0AA1FBB1FEE1F21
:10018000FF1FA217B307E407F50720F0A21BB30B6C
:10019000E40BF50B661F771F881F991F1A9469F7E8
:1001A00060957095809590959B01AC01BD01CF0144
:1001B0000895A29FB001B39FC001A39F700D811D40
:1001C0001124911DB29F700D811D1124911D089560
:0401D000F894FFCFD1
:00000001FF
