:100000000C9472000C9493000C9493000C94930045
:100010000C9493000C9493000C9493000C94930014
:100020000C9493000C9493000C9493000C94930004
:100030000C9493000C9493000C9493000C949300F4
:100040000C9493000C9493000C9493000C949300E4
:100050000C9493000C9493000C9493000C949300D4
:100060000C9493000C9493000C9493000C949300C4
:100070000C9493000C9493000C9493000C949300B4
:100080000C9493000C9493000C9493000C949300A4
:100090000C9493000C9493000C9493000C94930094
:1000A0000C9493000C9493000C9493000C94930084
:1000B0000C9493000C9493000C9493000C94930074
:1000C0000C9493000C9493000C9493000C94930064
:1000D0000C9493000C9493000C9493000C94930054
:1000E0000C94930011241FBECFEFD1E2DEBFCDBF31
:1000F00000E00CBF12E0A0E0B2E0E6E8F3E000E0D0
:100100000BBF02C007900D92A031B107D9F722E0D2
:10011000A0E1B2E001C01D92A131B207E1F70E9457
:10012000C1000C94C1010C94000028988EBD0DB440
:1001300007FEFDCF289A8EB5089592B1907F8F70FB
:10014000982B92B9159A85E08A95F1F700001598D9
:100150008FE891E00197F1F700C000000895CF9378
:10016000C82F149882958F700E949D008C2F0E943A
:100170009D008FE39FE10197F1F700C00000CF9150
:10018000089581B18F6381B982B1807C82B92FEFEC
:1001900039EF40E0215030404040E1F700C000001E
:1001A000149883E00E949D008FE19EE40197F1F78F
:1001B00000C0000083E00E949D0087E592E0019767
:1001C000F1F700C0000083E00E949D0082E00E94E1
:1001D0009D0088E20E94AF008CE00E94AF0086E0A4
:1001E0000E94AF0081E00E94AF00109210028FE0E9
:1001F000809307018FEF8093080184B1876084B9F1
:100200002398289A81E58CBD01E010E0DFEFC0E182
:10021000FC2EF0E0E0E098010E2E01C0220F0A94BF
:10022000EAF72095209308019AE19A95F1F700C02A
:100230006091060170E0B4E075956795BA95E1F7B5
:100240006F3009F46BC030E020E0AB01022E02C039
:10025000559547950A94E2F740FD5AC04FEF89EF54
:1002600090E0415080409040E1F700C00000409194
:10027000060150E0A4E055954795AA95E1F7022EB6
:1002800002C0559547950A94E2F740FD41C0EE0F34
:10029000FF1FEE0FFF1FE050FE4FE20FF31F8081A4
:1002A000A80102C0440F551F2A95E2F720910601CC
:1002B00030E094E0359527959A95E1F7242335238E
:1002C000232BA1F32FEF39EF40E021503040404085
:1002D000E1F700C00000D0930801811101C080E067
:1002E0000E949500C82F882349F08A3211F0863485
:1002F000E9F481E00E94AF00109210029FEF20E726
:1003000032E0915020403040E1F700C0000081CF42
:100310002F5F3F4F2430310509F097CF3196E430FD
:10032000F10509F078CFD0930801D9CF853431F4A5
:1003300080EC0E94AF00F0921002E0CF809110029A
:10034000803228F081E00E94AF0010921002149ACF
:100350008C2F82958F700E949D008C2F0E949D0093
:100360008FE891E00197F1F700C000008091100242
:100370008F5F80931002803109F680EC0E94AF00FD
:06038000BDCFF894FFCF91
:1003860031323341343536423738394346304544C5
:00000001FF
