:100000000C9472000C9493000C9493000C94930045
:100010000C9493000C9493000C9493000C94930014
:100020000C9493000C9493000C9493000C94950002
:100030000C9493000C9493000C9493000C949300F4
:100040000C9493000C9493000C9493000C949300E4
:100050000C9493000C9493000C9493000C949300D4
:100060000C9493000C9493000C9493000C949300C4
:100070000C9493000C9493000C9493000C949300B4
:100080000C9493000C9493000C9493000C949300A4
:100090000C9493000C9493000C9493000C94930094
:1000A0000C9493000C9493000C9493000C94930084
:1000B0000C9493000C9493000C9493000C94930074
:1000C0000C9493000C9493000C9493000C94930064
:1000D0000C9493000C9493000C9493000C94930054
:1000E0000C94930011241FBECFEFD1E2DEBFCDBF31
:1000F00000E00CBF12E0A0E0B2E0ECE3F2E000E0D0
:100100000BBF02C007900D92A031B107D9F722E0D2
:10011000A0E1B2E001C01D92A131B207E1F70E9457
:10012000CE000C941C010C9400001F920F920FB68D
:100130000F9211240BB60F922F938F939F93EF93EF
:10014000FF93809106018F708F3049F08E3099F0C7
:100150008D3001F18B3001F1E3E0873069F0FF91E0
:10016000EF919F918F912F910F900BBE0F900FBE2B
:100170000F901F901895E0E08091100224E0829F7C
:10018000C001112480509E4FE80FF92FF11D80818E
:1001900082B9E5CFE1E0F0CFE2E0EECFCF93DF939D
:1001A0001F921F92CDB7DEB78FEF81B982B98091D0
:1001B0000A018F6080930A0180910701807F8093FC
:1001C0000701809108018F60809308018091680089
:1001D00084608093680080916D008F6080936D00D3
:1001E000789441E050E01092100280911002843027
:1001F000D0F720910B0180911002BA0102C0660F66
:10020000771F8A95E2F7CB0180952F608223809338
:100210000B011A82198289819A81803A9F4030F4B9
:1002200089819A8101969A838983F5CF8091100202
:0C0230008F5F80931002D9CFF894FFCFAD
:10023C00F9A4B08899928283F88090C686C08EA16A
:00000001FF
