:100000000C9472000C9493000C9493000C94930045
:100010000C9493000C9493000C9493000C94930014
:100020000C9493000C9493000C9493000C94930004
:100030000C9493000C9493000C9493000C949300F4
:100040000C9493000C9493000C9493000C949300E4
:100050000C9493000C9493000C9493000C949300D4
:100060000C9493000C9493000C9493000C949300C4
:100070000C9493000C9493000C9493000C949300B4
:100080000C9493000C9493000C9493000C949300A4
:100090000C9493000C9493000C9493000C94930094
:1000A0000C9493000C9493000C9493000C94930084
:1000B0000C9493000C9493000C9493000C94930074
:1000C0000C9493000C9493000C9493000C94930064
:1000D0000C9493000C9493000C9493000C94930054
:1000E0000C94930011241FBECFEFD1E2DEBFCDBF31
:1000F00000E00CBF12E0A0E0B2E0E0E5F4E000E0D8
:100100000BBF02C007900D92A031B107D9F722E0D2
:10011000A0E1B2E001C01D92A331B207E1F70E9455
:10012000E3000C9426020C94000092B1907F8F7033
:10013000982B92B9159A85E08A95F1F700001598E9
:100140008FE891E00197F1F700C000000895CF9388
:10015000C82F149A82958F700E9495008C2F0E9450
:1001600095008FE891E00197F1F700C00000CF9172
:100170000895CF93C82F149882958F700E94950090
:100180008C2F0E9495008FE39FE10197F1F700C04B
:100190000000CF91089581E00E94B90010921202F0
:1001A0001092110280E80C94B90080911202811122
:1001B00008C081E0809312021092110280EC0C942E
:1001C000B9000C94CB0081B18F6381B982B1807C7E
:1001D00082B92FEF39EF80E0215030408040E1F7C5
:1001E00000C00000149883E00E949500AFE1BEE4D7
:1001F0001197F1F700C0000083E00E94950087E5A9
:1002000092E00197F1F700C0000083E00E949500A2
:1002100082E00E94950088E20E94B9008CE00E9472
:10022000B90086E00E94B9000E94CB008FE0809365
:1002300007018FEF809308018AB18C7F8AB98BB157
:1002400083608BB988E48093B8001092B90084E091
:100250008093BC00E0E0C1E0D0E004EAB0E4DB2E33
:1002600014E884E9F82E91E4E92E2FE0C22EBB2495
:10027000B39490E080E09E01082E01C0220F0A9402
:10028000EAF7209520930801AAE1AA95F1F700C0AA
:100290006091060170E0A4E075956795AA95E1F775
:1002A00050E040E09B01042E02C0359527950A944A
:1002B000E2F720FD40C0BFEFF9EF20E0B150F04081
:1002C0002040E1F700C000002091060130E0F4E09A
:1002D00035952795FA95E1F7042E02C035952795B7
:1002E0000A94E2F720FD27C0880F991F880F991FF5
:1002F00080509E4F480F591FDA01AC90AA2039F167
:10030000E11125C00093BC008091BC0087FFFCCFA9
:10031000D092BB001093BC008091BC0087FFFCCF43
:10032000A092BB001093BC008091BC0087FFFCCF63
:10033000F092BC000CC04F5F5F4F4430510509F094
:10034000B1CF01968430910509F095CFA12CBFEF74
:10035000F9EF20E0B150F0402040E1F700C000008C
:100360000093BC008091BC0087FFFCCFE092BB00F3
:100370001093BC008091BC0087FFFCCF1093BC00A1
:100380008091BC0087FFFCCF8091BB00F092BC0045
:10039000882379F08D3029F4B09210020E94D500A4
:1003A00008C08A3089F4809110028823B9F3109232
:1003B00010023FEF86E791E0315080409040E1F736
:1003C00000C00000EA2D55CF10921002853431F3A1
:1003D000863411F08C3019F40E94CB00EACF8830BB
:1003E00051F5809111028823C9F081508093110248
:1003F0008091110290911202911119C080580E94AF
:10040000B90080E20E94A70080911102909112022F
:1004100091110FC080580E94B900CBCF8091120279
:10042000882339F210921202C0921102E1CF805457
:10043000E6CF8054F0CF0E94A700809111028F5F19
:1004400080931102803108F4B4CFA8CFF894FFCF85
:1004500031323341343536423738394346304544FA
:00000001FF
